:10000000D2C00000FFC00000FDC00000FBC0000027
:10001000F9C00000F7C00000F5C00000F3C0000008
:10002000F1C00000EFC00000EDC00000EBC0000018
:10003000E9C00000E7C00000E5C00000E3C0000028
:10004000E1C00000DFC00000DDC00000DBC0000038
:10005000D9C00000D7C00000D5C0000053C40000C4
:10006000D1C0000019C40000EEC30000CBC00000E6
:10007000C9C00000C7C00000C5C00000C3C0000068
:10008000C1C00000BFC00000BDC00000BBC0000078
:10009000B9C00000B7C00000B5C00000B3C0000088
:1000A000B1C00000AFC00000ADC00000ABC0000098
:1000B000A9C00000A7C00000A5C00000A3C00000A8
:1000C000A1C000009FC000009DC000009BC00000B8
:1000D00099C0000097C0000095C0000093C00000C8
:1000E00091C0000000002200250028002B002E00F7
:1000F0003100340002010000050108010B0100007D
:100100002100240027002A002D00300033000101C7
:100110000000040107010A01050505050705080897
:100120000808020202020A0A080804040404010181
:100130000101010101010303030303030303040796
:1001400007070C0C0C0C0C0C0C0C0202020206062D
:100150000606060606060B0B0B0B0B0B0B0B010220
:1001600010202008081020401020408002010201C9
:100170000804020101020408102040808040201081
:1001800008040201800402018040201008040201DA
:100190000804020101020408102040800102040842
:1001A00010204080CC0411241FBECFEFD1E2DEBF6F
:1001B000CDBF00E00CBF12E0A0E0B2E0EAE3F5E161
:1001C00000E00BBF02C007900D92A23CB107D9F727
:1001D00023E0A2ECB2E001C01D92A03DB207E1F71E
:1001E00010E0C3EDD0E000E005C021970109802FA9
:1001F000FE01A0D5C23DD10780E00807B1F72DD49C
:100200000C949B0AFDCEEBECF2E0A089B18982E070
:100210008C93A485B5851C92A685B78580E18C93C7
:10022000108EA489B58986E08C93A289B3898C91BC
:1002300080618C93A289B3898C9188608C93A28908
:10024000B3898C9180688C930288F389E02D80813A
:100250008F7D80830895CF92DF92EF92FF920F936C
:100260001F932FB7F894C090C702D090C802E090B7
:10027000C902F090CA022FBFDC01CB018C0D9D1D7D
:10028000AE1DBF1D4FB7F8940091C7021091C80270
:100290002091C9023091CA024FBF0C151D052E05D1
:1002A0003F0528F080179107A207B30758F71F9161
:1002B0000F91FF90EF90DF90CF900895CF92DF9253
:1002C000EF92FF920F931F93CF93DF936C017A010C
:1002D0008B01C0E0D0E0CE15DF0589F0D8016D912B
:1002E0008D01D601ED91FC910190F081E02DC601C8
:1002F0001995892B11F47E0102C02196ECCFC7011C
:10030000DF91CF911F910F91FF90EF90DF90CF90F1
:100310000895FC01918D828D981761F0828DDF0127
:10032000A80FB11D5D968C91928D9F5F9F73928FE8
:1003300090E008958FEF9FEF0895FC01918D828DDD
:10034000981731F0828DE80FF11D858D90E00895AA
:100350008FEF9FEF0895FC01918D228D892F90E002
:10036000805C9F4F821B91098F73992708958BECB6
:1003700092E0F1DF21E0892B09F420E0822F08953B
:10038000FC01848DDF01A80FB11DA35ABF4F2C9132
:10039000848D90E001968F739927848FA689B78901
:1003A0002C93A089B1898C9180648C93938D848DDA
:1003B000981306C00288F389E02D80818F7D8083A9
:1003C0000895EF92FF920F931F93CF93DF93EC0169
:1003D00081E0888F9B8D8C8D981305C0E889F98901
:1003E000808185FD23C0F62E0B8D10E00F5F1F4F1F
:1003F0000F731127E02E8C8DE8120BC00FB607FC8F
:10040000FACFE889F989808185FFF5CFCE01B8DF81
:10041000F2CF8B8DFE01E80FF11DE35AFF4FF08202
:100420000B8FEA89FB898081806207C0EE89FF8992
:100430006083E889F98980818064808381E090E02D
:10044000DF91CF911F910F91FF90EF900895CF937F
:10045000DF93EC01888D8823C1F0EA89FB898081D4
:1004600085FD05C0A889B9898C9186FD0EC00FB69F
:1004700007FCF5CF808185FFF2CFA889B9898C91DF
:1004800085FFEDCFCE017CDFE8CFDF91CF910895DE
:1004900080E090E0892B19F06ADF811125C080E0AF
:1004A00090E0892B41F080E090E0892B21F00E94C0
:1004B000000081111CC080E090E0892B41F080E0B9
:1004C00090E0892B21F00E940000811113C080E090
:1004D00090E0892BA1F080E090E0892B81F00E94D0
:1004E000000081110AC008950E940000D8CF0E9428
:1004F0000000E1CF0E940000EACF0C9400000895B4
:100500003FB7F8948091C3029091C402A091C502B4
:10051000B091C60226B5A89B05C02F3F19F00196E1
:10052000A11DB11D3FBFBA2FA92F982F8827820F79
:10053000911DA11DB11DBC01CD0142E0660F771FC9
:10054000881F991F4A95D1F70895A6D661157105A0
:1005500079F0FB0101900020E9F73197AF01461BCC
:10056000570BDC01ED91FC910280F381E02D199491
:1005700080E090E00895CF93DF93BC018BEC92E094
:10058000E5DFEC0169E472E08BEC92E0DFDF8C0FD9
:100590009D1FDF91CF9108954F925F926F927F924E
:1005A000EF92FF920F931F93CF93DF93CDB7DEB7F8
:1005B000A1970FB6F894DEBF0FBECDBF7C01FA0144
:1005C000CB0119A2223008F42AE08E010F5D1F4FE3
:1005D000422E512C612C712CBF01A301920189D7AD
:1005E000F901CA01015011096A3014F4605D01C0BB
:1005F000695CD8016C93232B242B252B69F7B80158
:10060000C701A4DFA1960FB6F894DEBF0FBECDBF21
:10061000DF91CF911F910F91FF90EF907F906F909E
:100620005F904F9008954F925F926F927F928F925A
:100630009F92AF92BF92CF92DF92EF92FF926B01A7
:100640007C019B01AC0113D4882319F06EE272E0A7
:1006500018C046015701E894B7F82FEF3FEF4FE776
:100660005FE7C501B40103D4811110C02FEF3FEF44
:100670004FE75FE7C501B40123D618163CF462E3E7
:1006800072E08BEC92E062DF7C0180C02FEF3FEFE5
:100690004FE75FE4C701B601E6D318161CF466E322
:1006A00072E0EFCF2FEF3FEF4FE75FECC701B601EE
:1006B00007D687FDF4CF20E030E0A901C701B601DD
:1006C000FFD587FF11C0E091CB02F091CC020190E1
:1006D000F081E02D6DE28BEC92E019955C01F7FA68
:1006E000F094F7F8F09402C0A12CB12C2AE037ED79
:1006F00043EA5BE3C701B60126D32B013C0187D354
:100700006B017C01E1D59B01AC01C301B2011AD39D
:100710002B013C012AE0B701A6018BEC92E03CDF03
:100720007C01EA0CFB1C61E672E08BEC92E00EDFD0
:10073000E80EF91E20E030E040E251E4C301B201CE
:1007400024D62B013C0163D34B01A12CB12C2AE010
:10075000B501A4018BEC92E01FDFE80EF91EC50184
:10076000B401B2D59B01AC01C301B201EBD220E0D0
:1007700030E040E251E409D64AD3AB0160E070E0DA
:100780002AE08BEC92E008DFE80EF91E69E472E0E3
:100790008BEC92E0DBDE8E0D9F1DFF90EF90DF90E3
:1007A000CF90BF90AF909F908F907F906F905F9011
:1007B0004F900895EF92FF920F931F93CF93DF9383
:1007C000EC01198218821B821A821D821C8261151B
:1007D000710591F17B01FB0101900020E9F7319750
:1007E0008F01061B170BB8016F5F7F4F80E090E011
:1007F0006FD4009759F0998388831B830A832C81D7
:100800003D81232B79F4FC0110820CC088819981F1
:10081000009709F0C5D3198218821D821C821B82A1
:100820001A820AC01D830C83B701DF91CF911F91FB
:100830000F91FF90EF903DC5DF91CF911F910F91E8
:10084000FF90EF9008951F920F920FB60F92112410
:100850000BB60F922F933F934F935F936F937F93BA
:100860008F939F93AF93BF93EF93FF938BEC92E0A3
:1008700087DDFF91EF91BF91AF919F918F917F9114
:100880006F915F914F913F912F910F900BBE0F9001
:100890000FBE0F901F9018951F920F920FB60F92D8
:1008A00011240BB60F922F938F939F93EF93FF9387
:1008B000E091DB02F091DC028081E091E102F091B5
:1008C000E20282FD12C090818091E4028F5F8F73FB
:1008D0002091E502821751F0E091E402F0E0E55347
:1008E000FD4F958F8093E40201C08081FF91EF91CD
:1008F0009F918F912F910F900BBE0F900FBE0F9075
:100900001F9018951F920F920FB60F9211242F93DC
:100910003F938F939F93AF93BF938091C702909122
:10092000C802A091C902B091CA023091C20223E06C
:10093000230F2D3720F40196A11DB11D05C026E817
:10094000230F0296A11DB11D2093C2028093C702FE
:100950009093C802A093C902B093CA028091C302C7
:100960009091C402A091C502B091C6020196A11D4A
:10097000B11D8093C3029093C402A093C502B093AB
:10098000C602BF91AF919F918F913F912F910F9090
:100990000FBE0F901F901895EBECF2E013821282BD
:1009A00088EE93E0A0E0B0E084839583A683B783CC
:1009B00082E292E09183808385EC90E09587848742
:1009C00084EC90E09787868780EC90E0918B808B19
:1009D00081EC90E0938B828B82EC90E0958B848B02
:1009E00086EC90E0978B868B118E128E138E148E70
:1009F000E8E6F3E0168217821086118612861386C7
:100A00001486158616861786108A118A128A138A0A
:100A1000148A158AE0EBF3E080E090E0A0E8BFE301
:100A200080839183A283B38380E090E0A0E0B0E470
:100A300084839583A683B78380E090E0A0E4B0E44C
:100A400080879187A287B38780E090E0A0E8B0E438
:100A500084879587A687B7870895CF93DF93CDB70F
:100A6000DEB7EC970FB6F894DEBF0FBECDBF78941B
:100A700084B5826084BD84B5816084BD85B58260A3
:100A800085BD85B5816085BD80916E008160809354
:100A90006E001092810080918100826080938100BD
:100AA00080918100816080938100809180008160CD
:100AB000809380008091B10084608093B100809128
:100AC000B00081608093B00080919100826080933B
:100AD00091008091910081608093910080919000BD
:100AE0008160809390008091A10082608093A1003A
:100AF0008091A10081608093A1008091A00081601D
:100B00008093A000809121018260809321018091D7
:100B10002101816080932101809120018160809377
:100B2000200180917A00846080937A0080917A001D
:100B3000826080937A0080917A00816080937A004D
:100B400080917A00806880937A001092C1001092A0
:100B5000AC031092AD031092AE031092AF0310924B
:100B60006A0310926B0310926C0310926D0368EB92
:100B70007BE080E090E06FDB8BEC92E09093AB0346
:100B80008093AA0340DB2FB7F8948091C70290911D
:100B9000C802A091C902B091CA022FBF80936A0314
:100BA00090936B03A0936C03B0936D036AE372E0C0
:100BB0008091AA039091AB03C9DC6AE070E080E009
:100BC00090E049DB81E080937E031DDBEBE6F1E002
:100BD0002491E5E2F1E08491882399F090E0880F78
:100BE000991FFC01E250FF4FA591B491FC01EC511B
:100BF000FF4F859194918FB7F894EC91E22BEC9391
:100C00008FBF8CE492E0B7DC98E1992E8E010B5DEA
:100C10001F4FCE0101965C01E6E0F2E0D801892D7C
:100C200001900D928A95E1F71093C1030093C003E0
:100C30001093C3030093C2031093C5030093C4032E
:100C400063E672E0C501B6DD6EE672E0CE0107969E
:100C5000B1DD6AE772E0CE010D96ACDD64E872E0CA
:100C6000CE014396A7DD60E972E0CE014996A2DD90
:100C70006DE972E0CE014F969DDD88EA92E07BDC63
:100C80004D8D5E8D698D7A8D8BEC92E017DB83EB59
:100C900092E071DC65EB72E08BEC92E057DC6DA9C1
:100CA0007EA98FA998ADBFDC69EB72E08BEC92E076
:100CB0004DDC6DA97EA98FA998ADB5DC6DEB72E016
:100CC0008BEC92E043DC6DA97EA98FA998ADABDCDB
:100CD000780196E0E91AF108F7018081918160D1ED
:100CE000EA14FB04B1F70CDC2B013C0180EDC82EAB
:100CF00087E0D82EE12CF12C03DCDC01CB01841938
:100D00009509A609B709883E9340A105B10558F099
:100D1000F1E0CF1AD108E108F10828EE420E23E0F5
:100D2000521E611C711CC114D104E104F10421F7AD
:100D3000AFDB72CFEE0FFF1F881F8BBF0790F691BE
:100D4000E02D19945058BB27AA270ED098C389D3F9
:100D500030F08ED320F031F49F3F11F41EF47EC3A7
:100D60000EF4E095E7FB74C3E92F9AD380F3BA172A
:100D7000620773078407950718F071F49EF5B2C3F4
:100D80000EF4E0950B2EBA2FA02D0B01B9019001A6
:100D90000C01CA01A0011124FF27591B99F0593FEA
:100DA00050F4503E68F11A16F040A22F232F342F32
:100DB0004427585FF3CF469537952795A795F04080
:100DC0005395C9F77EF41F16BA0B620B730B840B95
:100DD000BAF09150A1F0FF0FBB1F661F771F881F4D
:100DE000C2F70EC0BA0F621F731F841F48F48795A5
:100DF00077956795B795F7959E3F08F0B3CF939594
:100E0000880F08F09927EE0F97958795089550D38E
:100E100088F09F5790F0B92F9927B751A0F0D1F0E3
:100E2000660F771F881F991F1AF0BA95C9F712C06D
:100E3000B13081F057D3B1E0089554C3672F782FB4
:100E40008827B85F39F0B93FCCF3869577956795D9
:100E5000B395D9F73EF490958095709561957F4F45
:100E60008F4F9F4F08956DD208F48FEF089569D288
:100E7000880B990B0895CF93DF938230910510F47E
:100E800082E090E0E091CE03F091CF0320E030E0EB
:100E9000C0E0D0E0309711F14081518148175907E7
:100EA000C0F04817590761F482819381209719F0A7
:100EB0009B838A832BC09093CF038093CE0326C05D
:100EC0002115310519F04217530718F49A01BE0194
:100ED000DF01EF010280F381E02DDCCF2115310528
:100EE00009F1281B390B2430310590F412968D91AD
:100EF0009C9113976115710521F0FB019383828307
:100F000004C09093CF038093CE03FD01329644C07A
:100F1000FD01E20FF31F81939193225031092D932C
:100F20003C933AC02091CC033091CD03232B41F464
:100F300020910202309103023093CD032093CC0321
:100F400020910002309101022115310541F42DB7A5
:100F50003EB74091040250910502241B350BE091ED
:100F6000CC03F091CD03E217F307A0F42E1B3F0B47
:100F70002817390778F0AC014E5F5F4F241735070B
:100F800048F04E0F5F1F5093CD034093CC038193E5
:100F9000919302C0E0E0F0E0CF01DF91CF9108959E
:100FA0000F931F93CF93DF93009709F48CC0FC013C
:100FB0003297138212820091CE031091CF03011554
:100FC000110581F420813181820F931F2091CC0380
:100FD0003091CD032817390779F5F093CD03E093CD
:100FE000CC0371C0D80140E050E0AE17BF0750F409
:100FF00012962D913C911397AD012115310509F100
:10100000D901F3CF9D01DA0133832283608171819D
:10101000860F971F8217930769F4EC0128813981A5
:10102000260F371F2E5F3F4F318320838A819B819C
:1010300093838283452B29F4F093CF03E093CE036F
:1010400042C01396FC93EE931297ED01499159918A
:101050009E01240F351FE217F30771F480819181FF
:10106000840F951F029611969C938E938281938193
:1010700013969C938E931297E0E0F0E0D8011296BD
:101080008D919C911397009719F0F8018C01F6CF80
:101090008D919C9198012E5F3F4F820F931F20915D
:1010A000CC033091CD032817390769F4309729F420
:1010B0001092CF031092CE0302C0138212821093BB
:1010C000CD030093CC03DF91CF911F910F91089531
:1010D0006F927F928F929F92AF92BF92CF92DF9248
:1010E000EF92FF920F931F93CF93DF93EC01009742
:1010F00081F4CB01DF91CF911F910F91FF90EF9081
:10110000DF90CF90BF90AF909F908F907F906F9027
:10111000B2CEFC01E60FF71F9C0122503109E21705
:10112000F30708F4A8C0D9010D911C911197061777
:101130001707A8F00530110508F49BC0C8010497F3
:101140008617970708F495C002501109061B170B64
:10115000019311936D937C93CF0122DF8AC05B01D1
:10116000A01AB10A4C01800E911EA091CE03B0913D
:10117000CF0340E050E0E12CF12C109709F44AC075
:10118000A815B905D1F56D907C901197630182E0A7
:10119000C80ED11CCA14DB0480F1A3014A195B09F3
:1011A0006A0182E0C80ED11C1296BC901297139669
:1011B000AC91B5E0CB16D10440F0B282A383518349
:1011C0004083D9016D937C930AC00E5F1F4FC3010A
:1011D000800F911FF90191838083EB2DFA2FE11489
:1011E000F10431F0D7011396FC93EE93129741C0AE
:1011F000F093CF03E093CE033CC08D919C91119767
:101200004817590708F4AC017D0112960D90BC9166
:10121000A02DB3CF8091CC039091CD038815990573
:10122000E1F446175707C8F480910002909101023B
:10123000009741F48DB79EB740910402509105028A
:10124000841B950BE817F907B0F4F093CD03E093F6
:10125000CC03F901718360830CC0CB010CDE7C01EF
:10126000009749F0A801BE011BD0CE0199DEC7014D
:1012700004C0CE0102C080E090E0DF91CF911F91C9
:101280000F91FF90EF90DF90CF90BF90AF909F9025
:101290008F907F906F90089581E090E0F8944BC11B
:1012A000FB01DC0102C001900D9241505040D8F783
:1012B0000895FB01DC0101900D920020E1F70895F3
:1012C00040D008F481E00895E89409C097FB3EF40B
:1012D00090958095709561957F4F8F4F9F4F992383
:1012E000A9F0F92F96E9BB279395F6958795779501
:1012F0006795B795F111F8CFFAF4BB0F11F460FFC1
:101300001BC06F5F7F4F8F4F9F4F16C0882311F018
:1013100096E911C0772321F09EE8872F762F05C02C
:10132000662371F096E8862F70E060E02AF09A95C7
:10133000660F771F881FDAF7880F9695879597F9BC
:101340000895990F0008550FAA0BE0E8FEEF161656
:101350001706E807F907C0F012161306E407F507A9
:1013600098F0621B730B840B950B39F40A2661F01D
:10137000232B242B252B21F408950A2609F4A140C0
:10138000A6958FEF811D811D08950BD078C069D07F
:1013900028F06ED018F0952309F05AC05FC01124D0
:1013A000A2C07ED0A0F3959FD1F3950F50E0551FBA
:1013B000629FF001729FBB27F00DB11D639FAA27AA
:1013C000F00DB11DAA1F649F6627B00DA11D661FF9
:1013D000829F2227B00DA11D621F739FB00DA11D1A
:1013E000621F839FA00D611D221F749F3327A00DD4
:1013F000611D231F849F600D211D822F762F6A2F70
:1014000011249F5750408AF0E1F088234AF0EE0FF4
:10141000FF1FBB1F661F771F881F91505040A9F701
:101420009E3F510570F014C05EC05F3FECF3983EE4
:10143000DCF3869577956795B795F795E7959F5F68
:10144000C1F7FE2B880F911D9695879597F9089502
:1014500097F99F6780E870E060E008959FEF80EC67
:10146000089500240A94161617061806090608950A
:1014700000240A9412161306140605060895092E70
:101480000394000C11F4882352F0BB0F40F4BF2BDF
:1014900011F460FF04C06F5F7F4F8F4F9F4F08951F
:1014A00057FD9058440F551F59F05F3F71F0479515
:1014B000880F97FB991F61F09F3F79F087950895FA
:1014C000121613061406551FF2CF4695F1DF08C019
:1014D000161617061806991FF1CF86957105610536
:1014E00008940895E894BB2766277727CB0197F9DE
:1014F0000895A1E21A2EAA1BBB1BFD010DC0AA1F55
:10150000BB1FEE1FFF1FA217B307E407F50720F06C
:10151000A21BB30BE40BF50B661F771F881F991FE7
:101520001A9469F760957095809590959B01AC0130
:0A153000BD01CF010895F894FFCF2C
:10153A000000D00380000000803F0000004000004F
:10154A004040000080400000A0400000C040000071
:10155A000000E1015E01AB0189019D0127026E6174
:10156A006E00696E66006F766600564D4450565F8F
:10157A00317C315F564D4450560D0A0077656C63D5
:10158A006F6D6520746F206D79207A6F6E652E2ECF
:10159A002E2E004C6566742046726F6E74004C6580
:1015AA006674204D6964646C65004C6566742052EB
:1015BA006561720052696768742046726F6E7400C2
:1015CA005269676874204D6964646C650052696782
:1015DA0068742052656172002D2D2D2D2D2D2D2D13
:1015EA002D2D003A00583A2000593A20005A3A2044
:0215FA000000EF
:00000001FF
