:10000000FAC0000026C1000024C1000022C1000087
:1000100020C100001EC100001CC100001AC1000068
:1000200018C1000016C1000014C1000012C1000078
:1000300010C100000EC100000CC100000AC1000088
:1000400008C1000006C1000004C1000002C1000098
:1000500000C10000FEC00000FCC0000052C3000050
:10006000F8C0000018C30000EDC20000F2C000009C
:10007000F0C00000EEC00000ECC00000EAC00000CC
:10008000E8C00000E6C00000E4C00000E2C00000DC
:10009000E0C00000DEC00000DCC00000DAC00000EC
:1000A000D8C00000D6C00000D4C00000D2C00000FC
:1000B000D0C00000CEC00000CCC00000CAC000000C
:1000C000C8C00000C6C00000C4C00000C2C000001C
:1000D000C0C00000BEC00000BCC00000BAC000002C
:1000E000B8C000005501580147014B014F018F0175
:1000F0005C01600166016A016E01740178017C0196
:100100008F01820186018A0100002200250028005B
:100110002B002E003100340002010000050108010F
:100120000B0105050505070508080808020202027B
:100130000A0A080804040404010101010101010183
:100140000303030303030303040707070C0C0C0C4E
:100150000C0C0C0C02020202060606060606060637
:100160000B0B0B0B0B0B0B0B0102102020080810C4
:100170002040102040800201020108040201010217
:1001800004081020408080402010080402018004F0
:10019000020180402010080402010804020101024B
:1001A0000408102040800102040810204080000054
:1001B0000A0B02090C0D0E080703040100000000E1
:1001C000000000000000000000000000000000002F
:1001D00000000000000000000000121110000000EC
:1001E000000000000000000000000000000000000F
:1001F00000000000CB0311241FBECFEFD1E2DEBF11
:10020000CDBF00E00CBF12E0A0E0B2E0E0E7F9E013
:1002100000E00BBF02C007900D92A031B107D9F7E3
:1002200022E0A0E1B2E001C01D92A63BB207E1F7D7
:1002300010E0CBEFD0E000E005C021970109802F4E
:10024000FE0188D3CA3FD10780E00807B1F7D0D2BA
:100250008DC3D6CECF93C82FEBEBF1E04491E5E709
:10026000F1E02491EFE2F1E09491992309F46AC05E
:10027000442309F454C050E0FA013197E231F1050A
:1002800008F04DC08827EE58FF4F8F4F63C3809111
:1002900080008F7707C0809180008F7D03C08091A0
:1002A0008000877F809380003AC084B58F7702C03A
:1002B00084B58F7D84BD33C08091B0008F7703C03B
:1002C0008091B0008F7D8093B00029C08091900014
:1002D0008F7707C0809190008F7D03C08091900040
:1002E000877F809390001BC08091A0008F7707C00C
:1002F0008091A0008F7D03C08091A000877F8093B4
:10030000A0000DC0309120013F7707C0309120013F
:100310003F7D03C030912001377F30932001E92FCA
:10032000F0E0EE0FFF1FE85FFE4FA591B4918FB78D
:10033000F894EC91C11103C020952E2301C02E2BFF
:100340002C938FBFCF910895CF92DF92EF92FF92BF
:100350000F931F93CF93DF936C017A018B01C0E061
:10036000D0E0CE15DF0589F0D8016D918D01D60161
:10037000ED91FC910190F081E02DC6011995892B3A
:1003800011F47E0102C02196ECCFC701DF91CF911D
:100390001F910F91FF90EF90DF90CF900895FC0197
:1003A000918D828D981761F0828DDF01A80FB11DAC
:1003B0005D968C91928D9F5F9F73928F90E00895D0
:1003C0008FEF9FEF0895FC01918D828D981731F08A
:1003D000828DE80FF11D858D90E008958FEF9FEFDE
:1003E0000895FC01918D228D892F90E0805C9F4FB4
:1003F000821B91098F739927089589E192E0F1DFBB
:1004000021E0892B09F420E0822F0895FC01848DDE
:10041000DF01A80FB11DA35ABF4F2C91848D90E02E
:1004200001968F739927848FA689B7892C93A08909
:10043000B1898C9180648C93938D848D981306C0C0
:100440000288F389E02D80818F7D80830895EF926B
:10045000FF920F931F93CF93DF93EC0181E0888F7E
:100460009B8D8C8D981305C0E889F989808185FD65
:1004700023C0F62E0B8D10E00F5F1F4F0F73112757
:10048000E02E8C8DE8120BC00FB607FCFACFE8897E
:10049000F989808185FFF5CFCE01B8DFF2CF8B8D52
:1004A000FE01E80FF11DE35AFF4FF0820B8FEA893E
:1004B000FB898081806207C0EE89FF896083E889BB
:1004C000F98980818064808381E090E0DF91CF9121
:1004D0001F910F91FF90EF900895CF93DF93EC0160
:1004E000888D8823C1F0EA89FB89808185FD05C05C
:1004F000A889B9898C9186FD0EC00FB607FCF5CF8F
:10050000808185FFF2CFA889B9898C9185FFEDCFD5
:10051000CE017CDFE8CFDF91CF91089580E090E0BD
:10052000892B19F06ADF811125C080E090E0892BCA
:1005300041F080E090E0892B21F00E9400008111C1
:100540001CC080E090E0892B41F080E090E0892B96
:1005500021F00E940000811113C080E090E0892BFF
:10056000A1F080E090E0892B81F00E9400008111D1
:100570000AC008950E940000D8CF0E940000E1CF79
:100580000E940000EACF0C94000008953FB7F89451
:100590008091150290911602A0911702B091180255
:1005A00026B5A89B05C02F3F19F00196A11DB11DCE
:1005B0003FBFBA2FA92F982F8827820F911DA11D09
:1005C000B11DBC01CD0142E0660F771F881F991F46
:1005D0004A95D1F708958F929F92AF92BF92CF9292
:1005E000DF92EF92FF92D2DF4B015C0180EDC82ECB
:1005F00087E0D82EE12CF12CC9DFDC01CB01881972
:100600009909AA09BB09883E9340A105B10558F094
:1006100021E0C21AD108E108F10888EE880E83E0D3
:10062000981EA11CB11CC114D104E104F10421F7EE
:10063000FF90EF90DF90CF90BF90AF909F908F9002
:10064000089590D11F920F920FB60F9211240BB6FE
:100650000F922F933F934F935F936F937F938F935B
:100660009F93AF93BF93EF93FF9389E192E0CEDE28
:10067000FF91EF91BF91AF919F918F917F916F917A
:100680005F914F913F912F910F900BBE0F900FBE36
:100690000F901F9018951F920F920FB60F92112472
:1006A0000BB60F922F938F939F93EF93FF93E0914D
:1006B0002902F0912A028081E0912F02F09130020C
:1006C00082FD12C09081809132028F5F8F732091E2
:1006D0003302821751F0E0913202F0E0E75EFD4F05
:1006E000958F8093320201C08081FF91EF919F919D
:1006F0008F912F910F900BBE0F900FBE0F901F90F8
:1007000018951F920F920FB60F9211242F933F93BB
:100710008F939F93AF93BF93809111029091120298
:10072000A0911302B09114023091100223E0230F24
:100730002D3720F40196A11DB11D05C026E8230F19
:100740000296A11DB11D2093100280931102909377
:100750001202A0931302B09314028091150290919B
:100760001602A0911702B09118020196A11DB11DA9
:100770008093150290931602A0931702B09318026B
:10078000BF91AF919F918F913F912F910F900FBE8D
:100790000F901F901895E9E1F2E01382128288EE23
:1007A00093E0A0E0B0E084839583A683B78384E0E0
:1007B00092E09183808385EC90E09587848784EC38
:1007C00090E09787868780EC90E0918B808B81EC1E
:1007D00090E0938B828B82EC90E0958B848B86ECFF
:1007E00090E0978B868B118E128E138E148E089547
:1007F000789484B5826084BD84B5816084BD85B5FC
:10080000826085BD85B5816085BD80916E00816007
:1008100080936E00109281008091810082608093AD
:1008200081008091810081608093810080918000AF
:100830008160809380008091B10084608093B100DA
:100840008091B00081608093B000809191008260BF
:1008500080939100809191008160809391008091BC
:1008600090008160809390008091A10082608093CD
:10087000A1008091A10081608093A1008091A000DF
:1008800081608093A000809121018260809321018A
:1008900080912101816080932101809120018160FC
:1008A0008093200180917A00846080937A00809107
:1008B0007A00826080937A0080917A0081608093D0
:1008C0007A0080917A00806880937A001092C1004B
:1008D000E0912902F0912A0282E08083E0912902CE
:1008E000F0912A021082E0912502F09126028FEF0A
:1008F0008083E0912702F0912802808310923102D8
:10090000E0912D02F0912E0286E08083E0912B028F
:10091000F0912C02808180618083E0912B02F09124
:100920002C02808188608083E0912B02F0912C0260
:10093000808180688083E0912B02F0912C0280817D
:100940008F7D808381E086DC46DE80E083DC43DED1
:10095000E5DDF8CFEE0FFF1F881F8BBF0790F691E4
:10096000E02D199481E090E0F89400C0F894FFCF56
:10097000000000002702A401F101CF01E3016D0294
:00000001FF
